{
  "_format": "hh-sol-artifact-1",
  "contractName": "MusicLicense",
  "sourceName": "contracts/MusicLicense.sol",
  "abi": [
    {
      "inputs": [
        {
          "internalType": "uint256",
          "name": "index",
          "type": "uint256"
        }
      ],
      "name": "getLicensees",
      "outputs": [
        {
          "internalType": "address[]",
          "name": "",
          "type": "address[]"
        }
      ],
      "stateMutability": "view",
      "type": "function"
    },
    {
      "inputs": [
        {
          "internalType": "uint256",
          "name": "index",
          "type": "uint256"
        }
      ],
      "name": "getSong",
      "outputs": [
        {
          "internalType": "string",
          "name": "",
          "type": "string"
        },
        {
          "internalType": "string",
          "name": "",
          "type": "string"
        },
        {
          "internalType": "address",
          "name": "",
          "type": "address"
        },
        {
          "internalType": "uint256",
          "name": "",
          "type": "uint256"
        },
        {
          "internalType": "uint256",
          "name": "",
          "type": "uint256"
        }
      ],
      "stateMutability": "view",
      "type": "function"
    },
    {
      "inputs": [],
      "name": "getTotalSongs",
      "outputs": [
        {
          "internalType": "uint256",
          "name": "",
          "type": "uint256"
        }
      ],
      "stateMutability": "view",
      "type": "function"
    },
    {
      "inputs": [
        {
          "internalType": "uint256",
          "name": "",
          "type": "uint256"
        },
        {
          "internalType": "uint256",
          "name": "",
          "type": "uint256"
        }
      ],
      "name": "licenseRecords",
      "outputs": [
        {
          "internalType": "address",
          "name": "",
          "type": "address"
        }
      ],
      "stateMutability": "view",
      "type": "function"
    },
    {
      "inputs": [
        {
          "internalType": "uint256",
          "name": "index",
          "type": "uint256"
        }
      ],
      "name": "licenseSong",
      "outputs": [],
      "stateMutability": "payable",
      "type": "function"
    },
    {
      "inputs": [
        {
          "internalType": "uint256",
          "name": "",
          "type": "uint256"
        }
      ],
      "name": "songs",
      "outputs": [
        {
          "internalType": "string",
          "name": "ipfsHash",
          "type": "string"
        },
        {
          "internalType": "string",
          "name": "name",
          "type": "string"
        },
        {
          "internalType": "address",
          "name": "owner",
          "type": "address"
        },
        {
          "internalType": "uint256",
          "name": "price",
          "type": "uint256"
        },
        {
          "internalType": "uint256",
          "name": "licenseCount",
          "type": "uint256"
        }
      ],
      "stateMutability": "view",
      "type": "function"
    },
    {
      "inputs": [
        {
          "internalType": "string",
          "name": "_ipfsHash",
          "type": "string"
        },
        {
          "internalType": "string",
          "name": "_name",
          "type": "string"
        },
        {
          "internalType": "uint256",
          "name": "_price",
          "type": "uint256"
        }
      ],
      "name": "uploadSong",
      "outputs": [],
      "stateMutability": "nonpayable",
      "type": "function"
    }
  ],
  "bytecode": "0x608060405234801561001057600080fd5b5061118a806100206000396000f3fe60806040526004361061006f5760003560e01c80633e28bb5d1161004e5780633e28bb5d146100fa57806342acaa66146101375780638c9db2b414610178578063a933aac8146101a35761006f565b8062b8d61b146100745780631176adba1461009d578063304cff30146100b9575b600080fd5b34801561008057600080fd5b5061009b60048036038101906100969190610a3a565b6101e0565b005b6100b760048036038101906100b29190610ac5565b6102d7565b005b3480156100c557600080fd5b506100e060048036038101906100db9190610ac5565b610446565b6040516100f1959493929190610bc1565b60405180910390f35b34801561010657600080fd5b50610121600480360381019061011c9190610c22565b6105bc565b60405161012e9190610c62565b60405180910390f35b34801561014357600080fd5b5061015e60048036038101906101599190610ac5565b61060a565b60405161016f959493929190610bc1565b60405180910390f35b34801561018457600080fd5b5061018d6107fd565b60405161019a9190610c7d565b60405180910390f35b3480156101af57600080fd5b506101ca60048036038101906101c59190610ac5565b610809565b6040516101d79190610d56565b60405180910390f35b60006040518060a001604052808581526020018481526020013373ffffffffffffffffffffffffffffffffffffffff16815260200183815260200160008152509080600181540180825580915050600190039060005260206000209060050201600090919091909150600082015181600001908161025e9190610f84565b5060208201518160010190816102749190610f84565b5060408201518160020160006101000a81548173ffffffffffffffffffffffffffffffffffffffff021916908373ffffffffffffffffffffffffffffffffffffffff16021790555060608201518160030155608082015181600401555050505050565b60008082815481106102ec576102eb611056565b5b906000526020600020906005020190508060030154341015610343576040517f08c379a000000000000000000000000000000000000000000000000000000000815260040161033a906110d1565b60405180910390fd5b8060020160009054906101000a900473ffffffffffffffffffffffffffffffffffffffff1673ffffffffffffffffffffffffffffffffffffffff166108fc82600301549081150290604051600060405180830381858888f193505050501580156103b1573d6000803e3d6000fd5b5060018160040160008282546103c79190611120565b9250508190555060016000838152602001908152602001600020339080600181540180825580915050600190039060005260206000200160009091909190916101000a81548173ffffffffffffffffffffffffffffffffffffffff021916908373ffffffffffffffffffffffffffffffffffffffff1602179055505050565b6000818154811061045657600080fd5b906000526020600020906005020160009150905080600001805461047990610da7565b80601f01602080910402602001604051908101604052809291908181526020018280546104a590610da7565b80156104f25780601f106104c7576101008083540402835291602001916104f2565b820191906000526020600020905b8154815290600101906020018083116104d557829003601f168201915b50505050509080600101805461050790610da7565b80601f016020809104026020016040519081016040528092919081815260200182805461053390610da7565b80156105805780601f1061055557610100808354040283529160200191610580565b820191906000526020600020905b81548152906001019060200180831161056357829003601f168201915b5050505050908060020160009054906101000a900473ffffffffffffffffffffffffffffffffffffffff16908060030154908060040154905085565b600160205281600052604060002081815481106105d857600080fd5b906000526020600020016000915091509054906101000a900473ffffffffffffffffffffffffffffffffffffffff1681565b6060806000806000806000878154811061062757610626611056565b5b90600052602060002090600502016040518060a001604052908160008201805461065090610da7565b80601f016020809104026020016040519081016040528092919081815260200182805461067c90610da7565b80156106c95780601f1061069e576101008083540402835291602001916106c9565b820191906000526020600020905b8154815290600101906020018083116106ac57829003601f168201915b505050505081526020016001820180546106e290610da7565b80601f016020809104026020016040519081016040528092919081815260200182805461070e90610da7565b801561075b5780601f106107305761010080835404028352916020019161075b565b820191906000526020600020905b81548152906001019060200180831161073e57829003601f168201915b505050505081526020016002820160009054906101000a900473ffffffffffffffffffffffffffffffffffffffff1673ffffffffffffffffffffffffffffffffffffffff1673ffffffffffffffffffffffffffffffffffffffff16815260200160038201548152602001600482015481525050905080600001518160200151826040015183606001518460800151955095509550955095505091939590929450565b60008080549050905090565b60606001600083815260200190815260200160002080548060200260200160405190810160405280929190818152602001828054801561089e57602002820191906000526020600020905b8160009054906101000a900473ffffffffffffffffffffffffffffffffffffffff1673ffffffffffffffffffffffffffffffffffffffff1681526020019060010190808311610854575b50505050509050919050565b6000604051905090565b600080fd5b600080fd5b600080fd5b600080fd5b6000601f19601f8301169050919050565b7f4e487b7100000000000000000000000000000000000000000000000000000000600052604160045260246000fd5b610911826108c8565b810181811067ffffffffffffffff821117156109305761092f6108d9565b5b80604052505050565b60006109436108aa565b905061094f8282610908565b919050565b600067ffffffffffffffff82111561096f5761096e6108d9565b5b610978826108c8565b9050602081019050919050565b82818337600083830152505050565b60006109a76109a284610954565b610939565b9050828152602081018484840111156109c3576109c26108c3565b5b6109ce848285610985565b509392505050565b600082601f8301126109eb576109ea6108be565b5b81356109fb848260208601610994565b91505092915050565b6000819050919050565b610a1781610a04565b8114610a2257600080fd5b50565b600081359050610a3481610a0e565b92915050565b600080600060608486031215610a5357610a526108b4565b5b600084013567ffffffffffffffff811115610a7157610a706108b9565b5b610a7d868287016109d6565b935050602084013567ffffffffffffffff811115610a9e57610a9d6108b9565b5b610aaa868287016109d6565b9250506040610abb86828701610a25565b9150509250925092565b600060208284031215610adb57610ada6108b4565b5b6000610ae984828501610a25565b91505092915050565b600081519050919050565b600082825260208201905092915050565b60005b83811015610b2c578082015181840152602081019050610b11565b60008484015250505050565b6000610b4382610af2565b610b4d8185610afd565b9350610b5d818560208601610b0e565b610b66816108c8565b840191505092915050565b600073ffffffffffffffffffffffffffffffffffffffff82169050919050565b6000610b9c82610b71565b9050919050565b610bac81610b91565b82525050565b610bbb81610a04565b82525050565b600060a0820190508181036000830152610bdb8188610b38565b90508181036020830152610bef8187610b38565b9050610bfe6040830186610ba3565b610c0b6060830185610bb2565b610c186080830184610bb2565b9695505050505050565b60008060408385031215610c3957610c386108b4565b5b6000610c4785828601610a25565b9250506020610c5885828601610a25565b9150509250929050565b6000602082019050610c776000830184610ba3565b92915050565b6000602082019050610c926000830184610bb2565b92915050565b600081519050919050565b600082825260208201905092915050565b6000819050602082019050919050565b610ccd81610b91565b82525050565b6000610cdf8383610cc4565b60208301905092915050565b6000602082019050919050565b6000610d0382610c98565b610d0d8185610ca3565b9350610d1883610cb4565b8060005b83811015610d49578151610d308882610cd3565b9750610d3b83610ceb565b925050600181019050610d1c565b5085935050505092915050565b60006020820190508181036000830152610d708184610cf8565b905092915050565b7f4e487b7100000000000000000000000000000000000000000000000000000000600052602260045260246000fd5b60006002820490506001821680610dbf57607f821691505b602082108103610dd257610dd1610d78565b5b50919050565b60008190508160005260206000209050919050565b60006020601f8301049050919050565b600082821b905092915050565b600060088302610e3a7fffffffffffffffffffffffffffffffffffffffffffffffffffffffffffffffff82610dfd565b610e448683610dfd565b95508019841693508086168417925050509392505050565b6000819050919050565b6000610e81610e7c610e7784610a04565b610e5c565b610a04565b9050919050565b6000819050919050565b610e9b83610e66565b610eaf610ea782610e88565b848454610e0a565b825550505050565b600090565b610ec4610eb7565b610ecf818484610e92565b505050565b5b81811015610ef357610ee8600082610ebc565b600181019050610ed5565b5050565b601f821115610f3857610f0981610dd8565b610f1284610ded565b81016020851015610f21578190505b610f35610f2d85610ded565b830182610ed4565b50505b505050565b600082821c905092915050565b6000610f5b60001984600802610f3d565b1980831691505092915050565b6000610f748383610f4a565b9150826002028217905092915050565b610f8d82610af2565b67ffffffffffffffff811115610fa657610fa56108d9565b5b610fb08254610da7565b610fbb828285610ef7565b600060209050601f831160018114610fee5760008415610fdc578287015190505b610fe68582610f68565b86555061104e565b601f198416610ffc86610dd8565b60005b8281101561102457848901518255600182019150602085019450602081019050610fff565b86831015611041578489015161103d601f891682610f4a565b8355505b6001600288020188555050505b505050505050565b7f4e487b7100000000000000000000000000000000000000000000000000000000600052603260045260246000fd5b7f496e73756666696369656e74207061796d656e74000000000000000000000000600082015250565b60006110bb601483610afd565b91506110c682611085565b602082019050919050565b600060208201905081810360008301526110ea816110ae565b9050919050565b7f4e487b7100000000000000000000000000000000000000000000000000000000600052601160045260246000fd5b600061112b82610a04565b915061113683610a04565b925082820190508082111561114e5761114d6110f1565b5b9291505056fea26469706673582212204c528698300b2a13915f9a9b2606179e14894d91b555a0df3058d386dfbef36564736f6c63430008140033",
  "linkReferences": {},
  "deployedLinkReferences": {}
}